:100000000C9434000C9451000C9451000C94510049
:100010000C9451000C9451000C9451000C9451001C
:100020000C9451000C9451000C9451000C94FF045A
:100030000C9451000C9451000C9451000C945100FC
:100040000C9451000C9451000C9451000C945100EC
:100050000C9451000C9451000C9451000C945100DC
:100060000C9451000C94510011241FBECFEFD8E026
:10007000DEBFCDBF11E0A0E0B1E0EAEEF1E402C0E6
:1000800005900D92A431B107D9F727E0A4E1B1E0C2
:1000900001C01D92AC38B207E1F70E94C20C0C946B
:1000A000F3200C940000CF93DF93CDB7DEB72E97EB
:1000B0000FB6F894DEBF0FBECDBF9E878D871E8220
:1000C0001D820E9436178091F806882329F40E9429
:1000D000C70181E08093F8068D859E85892B41F0CC
:1000E00084E090E02D853E85820F931F9E878D874B
:1000F0008D859E85892B09F4B8C08D859E858B3DA5
:10010000954008F0B2C080EF96E09C838B8380918D
:10011000F0069091F1069A8389830BC089819A81B8
:100120009C838B8389819A81FC01808191819A8350
:10013000898389819A81FC01228133818D859E8505
:100140002817390738F489819A81FC0180819181CF
:10015000892B21F789819A81845F964009F485C0B3
:100160008B819C81FC012081318184E090E0820FB1
:10017000931F9E838D8389819A81FC012081318127
:100180008B819C81FC013183208389819A81FC01D0
:10019000228133818D859E85281B390B84E090E078
:1001A000880F991F8217930708F04EC029813A8162
:1001B0008D859E85820F931F9A87898789819A8171
:1001C000FC01228133818D859E85281B390B898511
:1001D0009A85FC013383228389819A812D853E850E
:1001E000FC013383228389859A85FC018281938176
:1001F0009C878B8780EF96E098878F8307C08F81DD
:100200009885FC018081918198878F838F81988563
:10021000FC0180819181FC01228133818B859C8549
:100220002817390760F38F819885FC01208131817F
:1002300089859A85FC01318320838F819885298562
:100240003A85FC0131832083209100013091010126
:1002500089819A81FC0182819381A901481B590BF4
:10026000CA0190930101809300010E9443178D8180
:100270009E812E960FB6F894DEBF0FBECDBFDF91E4
:10028000CF910895CF93DF93CDB7DEB72A970FB6FE
:10029000F894DEBF0FBECDBF9A87898789859A857E
:1002A0009C838B8389859A85892B09F453C084E0CC
:1002B00090E09195819591092B813C81820F931F4C
:1002C0009C838B838B819C819E838D830E943617B8
:1002D0008D819E81FC018281938198878F8380EF3D
:1002E00096E09A83898307C089819A81FC01808185
:1002F00091819A83898389819A81FC01808191818E
:10030000FC01228133818F8198852817390760F39A
:1003100089819A81FC01208131818D819E81FC013E
:100320003183208389819A812D813E81FC01318333
:1003300020838D819E81FC01228133818091000187
:1003400090910101820F931F90930101809300010E
:100350000E94431700002A960FB6F894DEBF0FBE26
:10036000CDBFDF91CF910895CF93DF93CDB7DEB7A7
:100370008091000190910101DF91CF910895CF9379
:10038000DF93CDB7DEB70000DF91CF910895CF9313
:10039000DF9300D000D0CDB7DEB785E191E09A833E
:1003A000898389819A819093F1068093F006109257
:1003B000F3061092F2068BED95E09093F70680938A
:1003C000F6061092F5061092F40689819A819C83B4
:1003D0008B838B819C812BED35E0FC013383228361
:1003E0008B819C8124EF36E0FC0131832083000067
:1003F0000F900F900F900F90DF91CF910895CF93B2
:10040000DF93CDB7DEB728970FB6F894DEBF0FBEE7
:10041000CDBF9C838B837E836D8358874F838B8175
:100420009C8121E1FC0120838B819C8101979C832D
:100430008B838B819C8122E2FC0120838B819C81B8
:1004400001979C838B838B819C8123E3FC01208318
:100450008B819C8101979C838B838D819E819A8364
:10046000898329818B819C81FC0120838B819C81E4
:1004700001979C838B8389819A81892F99279A83FD
:10048000898329818B819C81FC0120838B819C81C4
:1004900001979C838B838B819C81FC0110828B81D3
:1004A0009C8101979C838B838B819C8120E8FC013C
:1004B00020838B819C8101979C838B838B819C8182
:1004C000FC0110828B819C8101979C838B838B81A3
:1004D0009C8122E0FC0120838B819C8101979C837D
:1004E0008B838B819C8123E0FC0120838B819C8109
:1004F00001979C838B838B819C8124E0FC0120836A
:100500008B819C8101979C838B838B819C8125E0CF
:10051000FC0120838B819C8101979C838B838B8141
:100520009C8126E0FC0120838B819C8101979C8328
:100530008B838B819C8127E0FC0120838B819C81B4
:1005400001979C838B838B819C8128E0FC01208315
:100550008B819C8101979C838B838B819C8129E07B
:10056000FC0120838B819C8101979C838B838B81F1
:100570009C8120E1FC0120838B819C8101979C83DD
:100580008B838B819C8121E1FC0120838B819C8169
:1005900001979C838B838B819C8122E1FC012083CA
:1005A0008B819C8101979C838B838B819C8123E130
:1005B000FC0120838B819C8101979C838B838B81A1
:1005C0009C8124E1FC0120838B819C8101979C8389
:1005D0008B838B819C8125E1FC0120838B819C8115
:1005E00001979C838B838B819C8126E1FC01208376
:1005F0008B819C8101979C838B838B819C8127E1DC
:10060000FC0120838B819C8101979C838B838B8150
:100610009C8128E1FC0120838B819C8101979C8334
:100620008B838B819C8129E1FC0120838B819C81C0
:1006300001979C838B838B819C8120E2FC0120832A
:100640008B819C8101979C838B838B819C8121E290
:10065000FC0120838B819C8101979C838B838B8100
:100660009C8122E2FC0120838B819C8101979C83E9
:100670008B838B819C8123E2FC0120838B819C8175
:1006800001979C838B838F8198859A8389832981A5
:100690008B819C81FC0120838B819C8101979C83B1
:1006A0008B8389819A81892F99279A8389832981CC
:1006B0008B819C81FC0120838B819C8101979C8391
:1006C0008B838B819C8126E2FC0120838B819C8122
:1006D00001979C838B838B819C8127E2FC01208383
:1006E0008B819C8101979C838B838B819C8128E2E9
:1006F000FC0120838B819C8101979C838B838B8160
:100700009C8129E2FC0120838B819C8101979C8341
:100710008B838B819C8120E3FC0120838B819C81D6
:1007200001979C838B838B819C8121E3FC01208337
:100730008B819C8101979C838B838B819C812896E4
:100740000FB6F894DEBF0FBECDBFDF91CF910895F5
:10075000CF93DF93CDB7DEB70E949D04A0913307FE
:10076000B0913407CD91CDBFDD91DEBFFF91EF9108
:10077000DF91CF91BF91AF919F918F917F916F91B9
:100780005F914F913F912F911F910F91FF90EF90AB
:10079000DF90CF90BF90AF909F908F907F906F90A1
:1007A0005F904F903F902F901F900F900FBE0F9033
:1007B000089581E0DF91CF910895CF93DF93CDB776
:1007C000DEB70000DF91CF9108950F920FB6F89435
:1007D0000F921F9211242F923F924F925F926F922D
:1007E0007F928F929F92AF92BF92CF92DF92EF92C1
:1007F000FF920F931F932F933F934F935F936F93AA
:100800007F938F939F93AF93BF93CF93DF93EF9398
:10081000FF93A0913307B09134070DB60D920EB639
:100820000D920E94F518A0913307B0913407CD9135
:10083000CDBFDD91DEBFFF91EF91DF91CF91BF91F1
:10084000AF919F918F917F916F915F914F913F9168
:100850002F911F910F91FF90EF90DF90CF90BF905D
:10086000AF909F908F907F906F905F904F903F9050
:100870002F901F900F900FBE0F90089500000F92C1
:100880000FB6F8940F921F9211242F923F924F921D
:100890005F926F927F928F929F92AF92BF92CF9210
:1008A000DF92EF92FF920F931F932F933F934F93FB
:1008B0005F936F937F938F939F93AF93BF93CF93E8
:1008C000DF93EF93FF93A0913307B09134070DB6F8
:1008D0000D920EB60D920E940618882311F00E9408
:1008E000F518A0913307B0913407CD91CDBFDD91BC
:1008F000DEBFFF91EF91DF91CF91BF91AF919F91BB
:100900008F917F916F915F914F913F912F911F91A7
:100910000F91FF90EF90DF90CF90BF90AF909F909E
:100920008F907F906F905F904F903F902F901F908F
:100930000F900FBE0F9008950000CF93DF9300D06B
:1009400000D000D0CDB7DEB780E89EE3A0E0B0E0F5
:1009500089839A83AB83BC8389819A81AB81BC8173
:10096000689415F8B695A795979587951694D1F73D
:1009700089839A83AB83BC8389819A81AB81BC8153
:100980000197A109B10989839A83AB83BC838981CB
:100990008D8389819A81AB81BC81892F9A2FAB2F5E
:1009A000BB2789839A83AB83BC8389818E8389E843
:1009B00090E02E81FC01208388E890E02D81FC01ED
:1009C00020838BE08D8381E890E02D81FC012083E2
:1009D0008FE690E0FC0180818D838D8182608D8324
:1009E0008FE690E02D81FC012083000026960FB653
:1009F000F894DEBF0FBECDBFDF91CF9108950E9466
:100A00003F0418950000CF93DF93CDB7DEB727974B
:100A10000FB6F894DEBF0FBECDBF9D838C836E836F
:100A20004F838AE190E00E9453009B838A838A81EE
:100A30009B81892B09F477C080912A0790912B071D
:100A4000892B41F48A819B8190932B0780932A07FD
:100A50000E948D078E81823010F081E08E838A8122
:100A60009B81FC01118E108E8A819B812E81FC015D
:100A7000268B8A819B812F81FC01278B8A819B8118
:100A80002C813D81FC01318320838A819B810296E8
:100A90000E94920B8A819B810C960E94920B8A8104
:100AA0009B812A813B81FC01318720878A819B8140
:100AB0002A813B81FC01338B228B8E81882F90E031
:100AC00022E030E0281B390B8A819B81FC013587AD
:100AD00024878A819B81FC01968980912C07891744
:100AE00030F48A819B81FC01868980932C078A815E
:100AF0009B81AC014E5F5F4F8A819B81FC0186899F
:100B0000282F30E0C901880F991F880F991F880F7F
:100B1000991F820F931F8750994FBA010E94A40B0F
:100B200081E0898302C08FEF8983898127960FB680
:100B3000F894DEBF0FBECDBFDF91CF910895CF9364
:100B4000DF9300D000D000D0CDB7DEB79C838B837D
:100B50007E836D8320912D0730912E078B819C81A0
:100B6000820F931F9A83898380912A0790912B0784
:100B700002960E946B0C80912A0790912B07298185
:100B80003A81FC013383228380912D0790912E07B7
:100B900029813A812817390778F480912A079091A2
:100BA0002B079C012E5F3F4F80911F0790912007DC
:100BB000B9010E94F30B0EC080912A0790912B0778
:100BC0009C012E5F3F4F80911D0790911E07B90138
:100BD0000E94F30B8D819E81892B61F080912A0701
:100BE00090912B079C01245F3F4F8D819E81B9011D
:100BF0000E94F30B000026960FB6F894DEBF0FBEDE
:100C0000CDBFDF91CF910895CF93DF9300D0CDB7C3
:100C1000DEB73CC0F8948091260790912707FC012D
:100C2000868197819A83898389819A810C960E9413
:100C30006B0C789489819A8102960E946B0C898151
:100C40009A81FC01968980912C07891730F489815B
:100C50009A81FC01868980932C0789819A81AC0155
:100C60004E5F5F4F89819A81FC018689282F30E091
:100C7000C901880F991F880F991F880F991F820F2C
:100C8000931F8750994FBA010E94A40B80912107AE
:100C9000882309F0BFCF00000F900F90DF91CF9114
:100CA0000895CF93DF9300D000D0CDB7DEB70E9478
:100CB000D1179C0180912F0790913007A901481B03
:100CC000590BCA0190933207809331078AC08091F3
:100CD0002D0790912E07019690932E0780932D0754
:100CE000809131079091320701979093320780935A
:100CF000310780912D0790912E07892B09F068C04C
:100D000080911D0790911E079A83898380911F0708
:100D10009091200790931E0780931D0789819A81E7
:100D20009093200780931F0753C080911D079091D7
:100D30001E07FC0185819681FC01868197819C8339
:100D40008B838B819C81FC012281338180912D07D3
:100D500090912E078217930708F443C0F8948B8173
:100D60009C8102960E946B0C8B819C81FC01848982
:100D70009589892B29F08B819C810C960E946B0CA4
:100D800078948B819C81FC01968980912C0789172E
:100D900030F48B819C81FC01868980932C078B81A8
:100DA0009C81AC014E5F5F4F8B819C81FC018689E9
:100DB000282F30E0C901880F991F880F991F880FCD
:100DC000991F820F931F8750994FBA010E94A40B5D
:100DD00080911D0790911E07FC018081882309F0F6
:100DE000A4CF8091310790913207892B09F06FCF02
:100DF00080912D0790912E079093300780932F07B5
:100E000000000F900F900F900F90DF91CF910895F9
:100E1000CF93DF9300D0CDB7DEB70E9404060E94C7
:100E200051060AC080912C07882309F470C0809174
:100E30002C07815080932C0780912C07282F30E0BD
:100E4000C901880F991F880F991F880F991F820F5A
:100E5000931F8750994FFC018081882319F380915B
:100E60002C07282F30E0C901880F991F880F991F80
:100E7000880F991F820F931F8750994F9A838983F8
:100E800089819A81FC0181819281FC0122813381D7
:100E900089819A81FC013283218389819A81FC01B5
:100EA0002181328189819A8103962817390769F453
:100EB00089819A81FC0181819281FC0122813381A7
:100EC00089819A81FC013283218389819A81FC0185
:100ED00081819281FC018681978190932B07809379
:100EE0002A0780912A0790912B07FC0120813181EC
:100EF00080912A0790912B07FC01478980912A074E
:100F000090912B07642FF9010995000001C00000A2
:100F10000F900F90DF91CF910895CF93DF931F92A1
:100F2000CDB7DEB7198213C08981282F30E0C901FF
:100F3000880F991F880F991F880F991F820F931F81
:100F40008750994F0E945C0B89818F5F89838981CB
:100F5000823050F38BE097E00E945C0B84E197E0D5
:100F60000E945C0B81E297E00E945C0B8BE097E0B3
:100F700090931E0780931D0784E197E090932007CC
:100F800080931F0700000F90DF91CF910895CF93BA
:100F9000DF9300D000D01F92CDB7DEB79D838C8346
:100FA0008C819D81FC0185819681FC0186819781E0
:100FB0009B838A838A819B810C960E946B0C8A8119
:100FC0009B810C96BC0181E297E00E94A40B8A8170
:100FD0009B81FC01268980912A0790912B07FC01B7
:100FE0008689281718F081E0898301C019828981D8
:100FF0000F900F900F900F900F90DF91CF91089569
:10100000CF93DF9300D0CDB7DEB78BE090E00E94A6
:1010100053009A83898389819A81892B51F0898130
:101020009A81FC011182108289819A8102960E9424
:101030005C0B89819A810F900F90DF91CF91089579
:10104000CF93DF93CDB7DEB760970FB6F894DEBFCE
:101050000FBECDBF9A8789877C876B875E874D8758
:10106000388B2F8789859A859C838B831D820E946C
:1010700036178B819C81FC01808191819F838E83B7
:101080002B853C8589859A85B9010E94FD092E81B1
:101090003F818B859C85282B392B8D859E85282328
:1010A00039238D859E8528173907D9F42E813F81F4
:1010B0008B859C85822B932B9A8389838B819C8142
:1010C000FC01208131818D859E8580959095282316
:1010D00039238B819C81FC0131832083188A1F86F0
:1010E0001AC08F859889892B79F08D859E859C0102
:1010F00035608B819C8102964F855889B9010E9489
:101100009B191A82198207C08B819C81FC01808106
:1011100091819A8389830E94431788878F85988954
:10112000892B09F43DC08885882311F40E94E503CA
:101130000E94311D9A83898389819A8188279270C0
:10114000892B49F50FB6F8940F928B819C81FC0195
:10115000808191819A83898329813A818D859E85B9
:10116000282339238D859E852817390781F48B81A3
:101170009C81FC01208131818D859E858095909593
:10118000282339238B819C81FC01318320830F909C
:101190000FBE81E08D8389819A8199279A83898303
:1011A00089819A8160960FB6F894DEBF0FBECDBFDD
:1011B000DF91CF9108950F931F93CF93DF93CDB716
:1011C000DEB763970FB6F894DEBF0FBECDBF9D8725
:1011D0008C877F876E87488B298B1B8B0A8B8C852E
:1011E0009D859E838D831C821B821F820E943617E1
:1011F0008D819E81FC0180819181998788872E85D0
:101200003F85888599854989B9010E942A0B8A877B
:101210008A858823D1F0888599859A8389831B8A5A
:101220001A8A88898823D1F18D819E81FC012081D1
:1012300031818E859F8580959095282339238D81D6
:101240009E81FC013183208329C08A899B89892B57
:1012500029F4888599859A83898320C08889882381
:1012600029F08B819C8191609C838B838989882361
:1012700029F08B819C8194609C838B832E853F8594
:101280008B819C81282B392B8D819E8102964A89E6
:101290005B89B9010E949B191A8219820E94431727
:1012A0008B878A899B89892B09F43EC08B8588238B
:1012B00011F40E94E5030E94311D9A83898389817C
:1012C0009A8188279270892B51F50FB6F8940F9266
:1012D0008D819E81FC01808191819A8389832E85F5
:1012E0003F8589819A814989B9010E942A0B882307
:1012F00099F08889882381F08D819E81FC0120816D
:1013000031818E859F8580959095282339238D8105
:101310009E81FC01318320830F900FBE1F82898143
:101320009A8199279A83898389819A8163960FB6D6
:10133000F894DEBF0FBECDBFDF91CF911F910F910B
:101340000895CF93DF93CDB7DEB728970FB6F89403
:10135000DEBF0FBECDBF9E838D8378876F838D8167
:101360009E819A8389830FB6F8940F9289819A811E
:10137000FC01808191819C838B8389819A81FC010E
:10138000208131818F8198858095909528233923FC
:1013900089819A81FC01318320830F900FBE8B815C
:1013A0009C8128960FB6F894DEBF0FBECDBFDF91AB
:1013B000CF910895CF93DF93CDB7DEB727970FB6C0
:1013C000F894DEBF0FBECDBF9F838E838E819F8139
:1013D0009A8389831B8289819A81FC018081918112
:1013E0009D838C838C819D8127960FB6F894DEBFF8
:1013F0000FBECDBFDF91CF910895CF93DF93CDB7CF
:10140000DEB765970FB6F894DEBF0FBECDBF9B8BDE
:101410008A8B7D8B6C8B1C821B828A899B899F8324
:101420008E831D828E819F81029699878887888509
:10143000998503969B878A870E94361788859985A8
:10144000FC01858196819A8389838E819F81FC012D
:10145000208131818C899D89282B392B8E819F8118
:10146000FC01318320835EC089819A81FC018281E5
:1014700093819D878C8789819A81FC0180819181EC
:101480009F878E871D828E859F858827998B888B65
:101490008E859F8599279F878E8788899989882738
:1014A0009470892B71F48E819F81FC0120813181A0
:1014B0008E859F8582239323892B99F081E08D83EC
:1014C00010C08E819F81FC01208131818E859F8596
:1014D000282339238E859F852817390711F481E049
:1014E0008D838D818823D1F088899989882791708F
:1014F000892B41F02B813C818E859F85822B932BFC
:101500009C838B838E819F81FC01808191819C01D2
:10151000326089819A81B9010E944D1A8C859D851E
:101520009A83898329813A818A859B85281739077F
:1015300009F09ACF8E819F81FC01208131818B81BE
:101540009C8180959095282339238E819F81FC0171
:10155000318320830E9443178E819F81FC0180810B
:10156000918165960FB6F894DEBF0FBECDBFDF91B7
:10157000CF910895CF93DF9300D000D000D0CDB7A6
:10158000DEB79E838D838D819E819A838983898135
:101590009A8102969C838B830E94361709C08B81A7
:1015A0009C81FC018581968160E072E00E944D1A69
:1015B0008B819C81FC018081882389F789819A81B4
:1015C0000E9442010E944317000026960FB6F8942D
:1015D000DEBF0FBECDBFDF91CF910895CF93DF93D4
:1015E00000D000D000D0CDB7DEB79A8389834B837B
:1015F0005C836D837E832B813C8189819A81B901D3
:101600000E94FD09000026960FB6F894DEBF0FBEBB
:10161000CDBFDF91CF910895CF93DF9300D000D05D
:1016200000D0CDB7DEB79A8389834B835C836D830B
:101630007E832B813C8189819A81B9010E94A10915
:10164000000026960FB6F894DEBF0FBECDBFDF9127
:10165000CF910895CF93DF9300D000D000D0CDB7C5
:10166000DEB79B838A837D836C834E8319828E8150
:10167000882359F42A813B818C819D818223932385
:10168000892B81F081E089830DC02A813B818C8187
:101690009D81282339238C819D812817390711F4D6
:1016A00081E08983898126960FB6F894DEBF0FBE4C
:1016B000CDBFDF91CF910895CF93DF9300D0CDB709
:1016C000DEB79A83898389819A819C012D5F3F4F80
:1016D00089819A81FC013283218389819A812FEF4C
:1016E0003FEFFC013483238389819A819C012D5F24
:1016F0003F4F89819A81FC013683258389819A81B4
:101700009C012D5F3F4F89819A81FC01308727839F
:1017100089819A81FC01108200000F900F90DF9167
:10172000CF910895CF93DF9300D0CDB7DEB79A83E2
:10173000898389819A81FC011186108600000F90AF
:101740000F90DF91CF910895CF93DF9300D000D019
:1017500000D0CDB7DEB79C838B837E836D838B8176
:101760009C81FC01818192819A8389838D819E81F4
:1017700029813A81FC013383228389819A81FC018A
:10178000248135818D819E81FC013583248389816B
:101790009A81FC01848195812D813E81FC013383F6
:1017A000228389819A812D813E81FC0135832483A6
:1017B0008D819E812B813C81FC01318720878B812B
:1017C0009C81FC01808121E0280F8B819C81FC01A0
:1017D0002083000026960FB6F894DEBF0FBECDBF63
:1017E000DF91CF910895CF93DF93CDB7DEB72897E0
:1017F0000FB6F894DEBF0FBECDBF9E838D83788772
:101800006F838F819885FC01808191819C838B837C
:101810008B819C81019641F48D819E81FC018781A1
:1018200090859A8389831AC08D819E8103969A83BD
:10183000898307C089819A81FC01828193819A837F
:10184000898389819A81FC0182819381FC012081B5
:1018500031818B819C818217930760F789819A81FE
:10186000FC01228133818F819885FC01338322839F
:101870008F819885FC01828193812F813885FC01BD
:10188000358324838F81988529813A81FC013583B2
:10189000248389819A812F813885FC0133832283B7
:1018A0008F8198852D813E81FC01318720878D8134
:1018B0009E81FC01808121E0280F8D819E81FC01A9
:1018C0002083000028960FB6F894DEBF0FBECDBF70
:1018D000DF91CF910895CF93DF9300D000D0CDB7A3
:1018E000DEB79C838B838B819C81FC0180859185F5
:1018F0009A8389838B819C81FC01828193812B81D6
:101900003C81F90124813581FC01358324838B815D
:101910009C81FC01848195812B813C81F90122818C
:101920003381FC013383228389819A81FC012181E7
:1019300032818B819C812817390751F48B819C81DE
:10194000FC012481358189819A81FC0132832183C4
:101950008B819C81FC011186108689819A81FC0112
:1019600080812FEF280F89819A81FC012083898152
:101970009A81FC0180810F900F900F900F90DF9162
:10198000CF910895AF92BF92CF92DF92EF92FF92E4
:101990000F93CF93DF93CDB7DEB7A12CB12CC12C21
:1019A000D12CE12CF12C03E020E030E040E051E0CC
:1019B00064E071E081EE9CE00E9400150E94F21646
:1019C000FFCFCF93DF9300D000D0CDB7DEB79C839D
:1019D0008B8384E290E024E230E0F90120812062F0
:1019E000FC0120830E94D1179A83898385E290E0CD
:1019F00025E230E0F90120812062FC01208368EEBD
:101A000073E0CE0101960E94421685E290E025E245
:101A100030E0F90120812F7DFC01208368EE73E026
:101A2000CE0101960E944216E1CFCF93DF9300D002
:101A300000D01F92CDB7DEB79C838B836D838B81E3
:101A40009C819A8389830FB6F8940F9289819A8139
:101A5000FC018081918129813A81F901238D422FF6
:101A600050E029813A81F901248D222F30E0429FF4
:101A7000B001439F700D529F700D11249B01280FE0
:101A8000391F89819A81FC013383228389819A815C
:101A9000FC01128E89819A81FC012081318189812A
:101AA0009A81FC013583248389819A81FC0180819C
:101AB000918129813A81F901238D222F30E0A901FA
:101AC0004150510929813A81F901248D222F30E0BA
:101AD000429FB001439F700D529F700D11249B01D6
:101AE000280F391F89819A81FC01378326838981D8
:101AF0009A812FEFFC01258F89819A812FEFFC01BC
:101B0000268F8D81882381F489819A81FC018085CB
:101B10008823A1F089819A8108960E94E01981307A
:101B200069F40E94E5030AC089819A8108960E949F
:101B30005C0B89819A8141960E945C0B0F900FBECD
:101B400081E00F900F900F900F900F90DF91CF9149
:101B50000895CF93DF93CDB7DEB72B970FB6F894E8
:101B6000DEBF0FBECDBF89876A874B871C821B8271
:101B70008A85882319F41A82198211C08985282F31
:101B800030E08A85882F90E0289FA001299F500D82
:101B9000389F500D1124CA0101969A838983898147
:101BA0009A814F960E9453009E838D838D819E81E2
:101BB000892B61F18D819E8198878F838A85882307
:101BC00041F48F8198852F813885FC0131832083F2
:101BD0000AC08D819E819C01215E3F4F8F81988537
:101BE000FC01318320838F8198852985FC01238F17
:101BF0008F8198852A85FC01248F8F81988561E0EB
:101C00000E94150D8F8198859C838B838B819C818D
:101C10002B960FB6F894DEBF0FBECDBFDF91CF91EC
:101C20000895CF93DF93CDB7DEB72E970FB6F89414
:101C3000DEBF0FBECDBF998788877B876A875D87A8
:101C40004C872E871982888599859B838A830FB656
:101C5000F8940F928A819B81FC01228D8A819B815D
:101C6000FC01838D281718F08E85823011F52A85A6
:101C70003B858A819B814E85B9010E9455118C83D9
:101C80008A819B81FC018189882351F08A819B8113
:101C900041960E94E019813041F40E94E50305C09D
:101CA0008C81882311F00E94E5030F900FBE81E024
:101CB00060C08C859D85892B21F40F900FBE80E03C
:101CC00058C08981882331F4CE0105960E94B81A44
:101CD00081E089830F900FBE0E9436170FB6F894EB
:101CE0000F928A819B81FC01858D8F3F21F48A812F
:101CF0009B81FC01158E8A819B81FC01868D8F3F23
:101D000021F48A819B81FC01168E0F900FBE9E01EB
:101D1000245F3F4FCE010596B9010E94D41A882353
:101D200009F58A819B810E9402138823A1F02C85EA
:101D30003D858A819B810896B9010E9465198A8137
:101D40009B810E9466120E944317882309F07FCF6F
:101D50000E94E5037CCF8A819B810E9466120E94CB
:101D6000431775CF8A819B810E9466120E94431798
:101D700080E02E960FB6F894DEBF0FBECDBFDF9188
:101D8000CF910895CF93DF93CDB7DEB72B970FB6E2
:101D9000F894DEBF0FBECDBF9E838D8378876F839F
:101DA0005A8749872B878D819E819B838A831C82DA
:101DB0008A819B81FC01228D8A819B81FC01838D1C
:101DC000281718F08B85823091F52F8138858A810C
:101DD0009B814B85B9010E9455118A819B81FC0131
:101DE000868D8F3FB9F48A819B81FC01818988238C
:101DF000D9F08A819B8141960E94E0198823A1F045
:101E000089859A85892B81F089859A8521E0FC0155
:101E100020830AC08A819B81FC01868D8F5F282FD9
:101E20008A819B81FC01268F81E0898301C0198210
:101E300089812B960FB6F894DEBF0FBECDBFDF9120
:101E4000CF910895CF93DF93CDB7DEB728970FB624
:101E5000F894DEBF0FBECDBF9E838D8378876F83DE
:101E60008D819E819B838A831C828A819B81FC0158
:101E7000228D8A819B81FC01838D2817A0F58A81A0
:101E80009B81FC01828D21E0280F8A819B81FC01CE
:101E9000228F8A819B81FC01868D8F3FB9F48A81D4
:101EA0009B81FC0181898823D9F08A819B8141969D
:101EB0000E94E0198823A1F08F819885892B81F0F9
:101EC0008F81988521E0FC0120830AC08A819B8153
:101ED000FC01868D8F5F282F8A819B81FC01268FD4
:101EE00081E0898301C01982898128960FB6F89410
:101EF000DEBF0FBECDBFDF91CF910895CF93DF93AB
:101F0000CDB7DEB72F970FB6F894DEBF0FBECDBFAB
:101F10009A8789877C876B875E874D872F87198291
:101F200089859A859B838A830FB6F8940F928A815C
:101F30009B81FC01828D882309F445C08A819B81A5
:101F4000FC01868197819D838C832B853C858A81CA
:101F50009B81B9010E9415128F858823D1F48A8153
:101F60009B81FC01828D2FEF280F8A819B81FC01D0
:101F7000228F8A819B81FC018085882301F18A81DF
:101F80009B8108960E94E0198130C9F40E94E50304
:101F900016C08A819B812C813D81FC013783268379
:101FA0008A819B81FC018189882349F08A819B81F8
:101FB00041960E94E019882311F00E94E5030F90DA
:101FC0000FBE81E060C08D859E85892B21F40F9026
:101FD0000FBE80E058C08981882331F4CE01069677
:101FE0000E94B81A81E089830F900FBE0E943617B5
:101FF0000FB6F8940F928A819B81FC01858D8F3FEB
:1020000021F48A819B81FC01158E8A819B81FC01D0
:10201000868D8F3F21F48A819B81FC01168E0F9063
:102020000FBE9E01235F3F4FCE010696B9010E946D
:10203000D41A882309F58A819B810E94CB128823B8
:10204000A1F02D853E858A819B814196B9010E9430
:1020500065198A819B810E9466120E94431788231A
:1020600009F062CF0E94E5035FCF8A819B810E94C5
:1020700066120E94431758CF8A819B810E94661284
:102080000E94431780E02F960FB6F894DEBF0FBE74
:10209000CDBFDF91CF910895CF93DF93CDB7DEB75A
:1020A0002A970FB6F894DEBF0FBECDBF9E838D83F7
:1020B00078876F835A8749878D819E819B838A8326
:1020C0001C828A819B81FC01828D8823D9F12F811A
:1020D00038858A819B81B9010E9415128A819B8172
:1020E000FC01828D2FEF280F8A819B81FC01228FBA
:1020F0008A819B81FC01858D8F3FB9F48A819B8108
:10210000FC0180858823D9F08A819B8108960E94F2
:10211000E0198823A1F089859A85892B81F089852A
:102120009A8521E0FC0120830AC08A819B81FC0101
:10213000858D8F5F282F8A819B81FC01258F81E00F
:10214000898301C0198289812A960FB6F894DEBF6F
:102150000FBECDBFDF91CF910895CF93DF93CDB761
:10216000DEB72A970FB6F894DEBF0FBECDBF9887B3
:102170008F837A8769878F8198859B838A831C8266
:102180008A819B81FC01828D8823C1F08A819B8199
:10219000FC01868197819E838D8329853A858A817A
:1021A0009B81B9010E9415128A819B812D813E81FC
:1021B000FC013783268381E0898301C019828981EC
:1021C0002A960FB6F894DEBF0FBECDBFDF91CF9138
:1021D0000895CF93DF9300D01F92CDB7DEB79B83D6
:1021E0008A830FB6F8940F928A819B81FC01828DBD
:1021F00089830F900FBE89810F900F900F90DF9110
:10220000CF910895CF93DF9300D000D01F92CDB728
:10221000DEB79D838C838C819D819A8389830FB6E1
:10222000F8940F9289819A81FC01238D89819A818A
:10223000FC01828DF22FF81B8F2F8B830F900FBE26
:102240008B810F900F900F900F900F90DF91CF9197
:102250000895CF93DF9300D01F92CDB7DEB79B8355
:102260008A838A819B81FC01828D898389810F9079
:102270000F900F90DF91CF910895CF93DF9300D00F
:1022800000D0CDB7DEB79C838B838B819C819A83F2
:10229000898389819A810E94420100000F900F90EA
:1022A0000F900F90DF91CF910895CF93DF9300D0DF
:1022B00000D000D0CDB7DEB79B838A837D836C834B
:1022C0004E8319828A819B81FC01848D882309F4C5
:1022D00098C08E818823D9F58A819B81FC01848DE9
:1022E000482F50E08A819B81FC01848195812C815B
:1022F0003D81B9010E94EA208A819B81FC012481F1
:1023000035818A819B81FC01848D882F90E0280F84
:10231000391F8A819B81FC01358324838A819B81BB
:10232000FC01248135818A819B81FC01828193811A
:102330002817390708F465C08A819B81FC01208138
:1023400031818A819B81FC01358324835AC08A8133
:102350009B81FC01848D482F50E08A819B81FC0188
:10236000868197812C813D81B9010E94EA208A8172
:102370009B81FC01268137818A819B81FC01848DB0
:10238000882F90E0919581959109280F391F8A81B6
:102390009B81FC01378326838A819B81FC012681F6
:1023A00037818A819B81FC018081918128173907BF
:1023B000A8F48A819B81FC01228133818A819B81DF
:1023C000FC01848D882F90E0919581959109280FCB
:1023D000391F8A819B81FC01378326838E8182305D
:1023E00081F48A819B81FC01828D882351F08A814E
:1023F0009B81FC01828D2FEF280F8A819B81FC013C
:10240000228F8A819B81FC01828D21E0280F8A81A5
:102410009B81FC01228F898126960FB6F894DEBF3E
:102420000FBECDBFDF91CF910895CF93DF9300D042
:1024300000D0CDB7DEB79A8389837C836B83898193
:102440009A81FC01848D8823C9F189819A81FC01DC
:102450002681378189819A81FC01848D882F90E0C3
:10246000280F391F89819A81FC013783268389814E
:102470009A81FC012681378189819A81FC018281C0
:1024800093812817390750F089819A81FC012081B6
:10249000318189819A81FC013783268389819A81E0
:1024A000FC01848D482F50E089819A81FC012681AE
:1024B00037818B819C81B9010E94EA2000000F9036
:1024C0000F900F900F90DF91CF910895CF93DF93EE
:1024D00000D0CDB7DEB79A8389830FB6F8940F92F8
:1024E00019C089819A81FC0181898823D1F0898171
:1024F0009A8141960E94E019882311F00E943C1BAA
:1025000089819A81FC01868D8150282F89819A8149
:10251000FC01268F89819A81FC01868D18160CF3A7
:1025200001C0000089819A812FEFFC01268F0F9056
:102530000FBE0FB6F8940F9219C089819A81FC01E1
:1025400080858823D1F089819A8108960E94E019BC
:10255000882311F00E943C1B89819A81FC01858DA2
:102560008150282F89819A81FC01258F89819A8148
:10257000FC01858D18160CF301C0000089819A8139
:102580002FEFFC01258F0F900FBE00000F900F90D2
:10259000DF91CF910895CF93DF9300D01F92CDB7F5
:1025A000DEB79B838A830FB6F8940F928A819B8152
:1025B000FC01828D882319F481E0898301C019828E
:1025C0000F900FBE89810F900F900F90DF91CF91E8
:1025D0000895CF93DF9300D01F92CDB7DEB79B83D2
:1025E0008A838A819B81FC01828D882319F481E092
:1025F000898301C0198289810F900F900F90DF911C
:10260000CF910895CF93DF9300D01F92CDB7DEB75F
:102610009B838A830FB6F8940F928A819B81FC0179
:10262000228D8A819B81FC01838D281719F481E01A
:10263000898301C019820F900FBE89810F900F907E
:102640000F90DF91CF910895CF93DF9300D01F9229
:10265000CDB7DEB79B838A838A819B81FC01228D63
:102660008A819B81FC01838D281719F481E089837D
:1026700001C0198289810F900F900F90DF91CF9147
:102680000895CF93DF93CDB7DEB729970FB6F894AF
:10269000DEBF0FBECDBF9D838C837F836E83598742
:1026A00048878C819D819B838A83F8948A819B8152
:1026B0000E9402138823A1F088859985892B69F0EF
:1026C0008A819B819C01285F3F4F88859985B9014C
:1026D0000E949F0578948CEF2CC0789480E029C0EC
:1026E0007894F8948A819B81FC01228D8A819B8158
:1026F000FC01838D2817D0F42E813F818A819B8134
:1027000040E0B9010E94551181E089838A819B8153
:10271000FC018189882359F08A819B8141960E941E
:10272000C707882321F08BEF898301C01982789431
:10273000898129960FB6F894DEBF0FBECDBFDF9119
:10274000CF910895CF93DF93CDB7DEB729970FB61A
:10275000F894DEBF0FBECDBF9D838C837F836E83D5
:10276000598748878C819D819B838A83F8948A81CD
:102770009B81FC01828D8823A1F488859985892B12
:1027800069F08A819B819C012F5E3F4F88859985E6
:10279000B9010E949F0578948CEF64C0789480E022
:1027A00061C07894F8948A819B81FC01828D882392
:1027B00009F455C08A819B81FC01268137818A8179
:1027C0009B81FC01848D882F90E0280F391F8A811E
:1027D0009B81FC01378326838A819B81FC012681B2
:1027E00037818A819B81FC01828193812817390777
:1027F00050F08A819B81FC01208131818A819B81FB
:10280000FC01378326838A819B81FC01828D2FEF17
:10281000280F8A819B81FC01228F8A819B81FC0188
:10282000848D482F50E08A819B81FC01268137816D
:102830008E819F81B9010E94EA2081E089838A818B
:102840009B81FC018085882359F08A819B810896B1
:102850000E94C707882321F08BEF898301C019826A
:102860007894898129960FB6F894DEBF0FBECDBF4C
:10287000DF91CF910895CF93DF93CDB7DEB7279740
:102880000FB6F894DEBF0FBECDBF9C838B837E83D3
:102890006D834F838B819C819A83898389819A81FF
:1028A000FC01228D89819A81FC01838D2817D0F447
:1028B0002D813E8189819A8140E0B9010E945511A4
:1028C0008F81882379F489819A81FC018189882309
:1028D00049F089819A8141960E94C707882311F0A7
:1028E00081E001C08F8127960FB6F894DEBF0FBE3E
:1028F000CDBFDF91CF910895CF93DF93CDB7DEB7F2
:1029000029970FB6F894DEBF0FBECDBF9D838C8391
:102910007F836E83598748878C819D819B838A83BF
:102920008A819B81FC01828D882309F45EC08A81A3
:102930009B81FC01268137818A819B81FC01848DEA
:10294000882F90E0280F391F8A819B81FC013783F3
:1029500026838A819B81FC01268137818A819B8124
:10296000FC01828193812817390750F08A819B816D
:10297000FC01208131818A819B81FC013783268380
:102980008A819B81FC01828D2FEF280F8A819B8198
:10299000FC01228F8A819B81FC01848D482F50E0AD
:1029A0008A819B81FC01268137818E819F81B901BB
:1029B0000E94EA2088859985FC018081882391F412
:1029C0008A819B81FC018085882361F08A819B81BB
:1029D00008960E94C707882329F08885998521E0F9
:1029E000FC01208381E0898301C0198289812996B5
:1029F0000FB6F894DEBF0FBECDBFDF91CF91089523
:102A0000AF92BF92CF92DF92EF92FF920F931F93FC
:102A1000CF93DF93CDB7DEB764970FB6F894DEBFE0
:102A20000FBECDBF9F838E83798768875B874A8778
:102A30003D872C870E87F88AEF86DA8AC98ABC8A96
:102A4000AB8A29893A898A859B85B9010E94A71C8E
:102A50009B838A838A819B81892B09F491C08A8117
:102A60009B81FC012789308D8A859B850197820F88
:102A7000931F9D838C834A855B852B893C89688560
:102A800079858A819B818A014E850E94571B4C85DE
:102A90005D852E813F818C819D81B9010E94FF015E
:102AA0009C018A819B81FC01318320838F859889D9
:102AB000892B39F08F8598892A813B81FC013183EC
:102AC00020830FB6F8940F92809182078F5F8093D6
:102AD00082078091330790913407892B69F48A81AA
:102AE0009B819093340780933307809182078130D4
:102AF000B1F40E94DD1B13C080918607882379F40E
:102B00008091330790913407FC0196898E8589174F
:102B100030F08A819B8190933407809333078091B2
:102B20008A078F5F80938A078A819B81FC0196893F
:102B300080918507891730F48A819B81FC01868901
:102B4000809385078A819B81AC014E5F5F4F8A81AC
:102B50009B81FC018689282F30E0C901880F991FCD
:102B6000880F991F880F991F820F931F8B5C984FB6
:102B7000BA010E94A40B81E089830F900FBE02C0AE
:102B80008FEF89838981813079F48091860788234A
:102B900059F08091330790913407FC0196898E8516
:102BA000981710F40E94E503898164960FB6F89493
:102BB000DEBF0FBECDBFDF91CF911F910F91FF9070
:102BC000EF90DF90CF90BF90AF900895CF93DF93B9
:102BD00000D000D0CDB7DEB79C838B830FB6F894BE
:102BE0000F928B819C81892B29F4809133079091DE
:102BF000340702C08B819C819A83898389819A8161
:102C000002960E946B0C89819A81FC0184899589C6
:102C1000892B29F089819A810C960E946B0C8981FD
:102C20009A810296BC0188E797E00E94A40B8091EC
:102C300081078F5F8093810780918A078F5F8093E0
:102C40008A070F900FBE80918607882399F08091A4
:102C500033079091340729813A812817390719F4ED
:102C60000E94E50307C00FB6F8940F920E94021D60
:102C70000F900FBE00000F900F900F900F90DF91FC
:102C8000CF910895CF93DF93CDB7DEB72A970FB6D4
:102C9000F894DEBF0FBECDBF98878F837A87698790
:102CA00019820E94361780918307909184079B8335
:102CB0008A838F819885FC012081318189859A855D
:102CC000820F931F9D838C838F819885FC012081C7
:102CD00031818A819B8182179307A0F48F81988527
:102CE000FC01208131818C819D8182179307E8F45A
:102CF0002C813D818A819B8182179307B0F481E00A
:102D0000898313C08F819885FC01208131818C815A
:102D10009D818217930738F02C813D818A819B81A8
:102D20008217930710F481E089838F8198852C8125
:102D30003D81FC01318320838981882359F0809172
:102D400033079091340702960E946B0C8C819D8111
:102D50000E945C1C0E9443178E838E81882311F48D
:102D60000E94E50300002A960FB6F894DEBF0FBE5E
:102D7000CDBFDF91CF910895CF93DF9300D000D0E6
:102D80001F92CDB7DEB79D838C8319828C819D8184
:102D9000892BD1F00E943617209183073091840748
:102DA0008C819D81820F931F9B838A83809133073F
:102DB0009091340702960E946B0C8A819B810E943D
:102DC0005C1C0E94431789838981882311F40E9427
:102DD000E50300000F900F900F900F900F90DF9180
:102DE000CF910895AF92BF92CF92DF92EF92FF9270
:102DF0000F93CF93DF931F92CDB7DEB7A12CB12CE9
:102E0000C12CD12CE12CF12C00E020E030E045E594
:102E100050E06DE071E087E49BE10E94001589833A
:102E20008981813051F4F89481E080938607109273
:102E30008407109283070E94A80300000F90DF917F
:102E4000CF910F91FF90EF90DF90CF90BF90AF9018
:102E50000895CF93DF93CDB7DEB7F894109286072D
:102E60000E94DD030000DF91CF910895CF93DF939F
:102E7000CDB7DEB780918B078F5F80938B07000003
:102E8000DF91CF910895CF93DF9300D01F92CDB7FC
:102E9000DEB719820FB6F8940F9280918B0781509C
:102EA00080938B0780918B07882309F071C08091F4
:102EB0008207882309F46CC049C0809174079091FF
:102EC0007507FC01868197819B838A838A819B8118
:102ED0000C960E946B0C8A819B8102960E946B0C5F
:102EE0008A819B81FC01968980918507891730F43E
:102EF0008A819B81FC018689809385078A819B81D9
:102F0000AC014E5F5F4F8A819B81FC018689282F2F
:102F100030E0C901880F991F880F991F880F991FEA
:102F2000820F931F8B5C984FBA010E94A40B8A8179
:102F30009B81FC0126898091330790913407FC0125
:102F40008689281718F081E08093880780916F07A1
:102F5000882309F0B2CF80918707882389F00CC0BD
:102F60000E940618882319F081E0809388078091D9
:102F7000870781508093870780918707882381F78F
:102F800080918807813021F481E089830E94E503E4
:102F90000F900FBE89810F900F900F90DF91CF910E
:102FA0000895CF93DF9300D0CDB7DEB70FB6F89476
:102FB0000F9280918307909184079A8389830F9061
:102FC0000FBE89819A810F900F90DF91CF91089564
:102FD000CF93DF9300D01F92CDB7DEB719828091D7
:102FE0008307909184079B838A838A819B810F90BA
:102FF0000F900F90DF91CF910895CF93DF93CDB7CE
:10300000DEB780918207DF91CF910895CF93DF9350
:10301000CDB7DEB729970FB6F894DEBF0FBECDBF90
:10302000198280918B07882309F0CAC08091830799
:1030300090918407019690938407809383078091F1
:103040008307909184079B838A838A819B81892B44
:10305000D9F480916B0790916C079D838C8380914C
:103060006D0790916E0790936C0780936B078C812E
:103070009D8190936E0780936D07809189078F5F84
:10308000809389070E94021D8091020190910301A3
:103090002A813B812817390708F478C080916B0793
:1030A00090916C07FC018081882339F48FEF9FEFAA
:1030B000909303018093020169C080916B07909106
:1030C0006C07FC0185819681FC01868197819F8335
:1030D0008E838E819F81FC0182819381998788876D
:1030E0002A813B81888599852817390738F4888596
:1030F0009985909303018093020148C08E819F813E
:1031000002960E946B0C8E819F81FC0184899589B7
:10311000892B29F08E819F810C960E946B0C8E81E9
:103120009F81FC01968980918507891730F48E81F3
:103130009F81FC018689809385078E819F81AC01E8
:103140004E5F5F4F8E819F81FC018689282F30E082
:10315000C901880F991F880F991F880F991F820F27
:10316000931F8B5C984FBA010E94A40B8E819F81A4
:10317000FC0126898091330790913407FC018689F0
:10318000281708F48BCF81E0898388CF809133079B
:1031900090913407FC018689282F30E0C901880FFF
:1031A000991F880F991F880F991F820F931F8B5C9F
:1031B000984FFC018081823040F081E0898305C016
:1031C000809187078F5F8093870780918807882386
:1031D00011F081E08983898129960FB6F894DEBFCA
:1031E0000FBECDBFDF91CF910895CF93DF9300D075
:1031F000CDB7DEB780918B07882321F081E08093E3
:1032000088075DC01092880705C0809185078150AE
:103210008093850780918507282F30E0C901880FAA
:10322000991F880F991F880F991F820F931F8B5C1E
:10323000984FFC018081882341F380918507282FD6
:1032400030E0C901880F991F880F991F880F991FB7
:10325000820F931F8B5C984F9A83898389819A810F
:10326000FC0181819281FC012281338189819A81D3
:10327000FC013283218389819A81FC012181328181
:1032800089819A8103962817390769F489819A817F
:10329000FC0181819281FC012281338189819A81A3
:1032A000FC013283218389819A81FC018181928191
:1032B000FC01868197819093340780933307000047
:1032C0000F900F90DF91CF910895CF93DF9300D0AF
:1032D00000D000D0CDB7DEB79C838B837E836D8317
:1032E00080913307909134079C01245F3F4F8B817D
:1032F0009C81B9010E94F30B8091330790913407B0
:1033000002960E946B0C20918307309184078D8177
:103310009E81820F931F9A83898389819A810E945B
:103320005C1C000026960FB6F894DEBF0FBECDBF22
:10333000DF91CF910895CF93DF93CDB7DEB7289774
:103340000FB6F894DEBF0FBECDBF9C838B837E8308
:103350006D8358874F8380913307909134072D8177
:103360003E813068FC013587248780913307909136
:1033700034079C01245F3F4F8B819C81B9010E94DF
:10338000A40B809133079091340702960E946B0C36
:1033900020918307309184078F819885820F931F36
:1033A0009A83898389819A810E945C1C00002896F7
:1033B0000FB6F894DEBF0FBECDBFDF91CF91089559
:1033C000CF93DF9300D000D01F92CDB7DEB79D839F
:1033D0008C838C819D81FC0185819681FC01868195
:1033E00097819B838A838A819B810C960E946B0CB8
:1033F00080918B07882369F58A819B8102960E94C0
:103400006B0C8A819B81FC019689809185078917C5
:1034100030F48A819B81FC018689809385078A81AB
:103420009B81AC014E5F5F4F8A819B81FC01868945
:10343000282F30E0C901880F991F880F991F880F26
:10344000991F820F931F8B5C984FBA010E94A40BA7
:1034500008C08A819B810C96BC018FE697E00E9490
:10346000A40B8A819B81FC0126898091330790916E
:103470003407FC018689821730F481E0898381E07A
:103480008093880701C0198289810F900F900F9057
:103490000F900F90DF91CF910895CF93DF93CDB729
:1034A000DEB727970FB6F894DEBF0FBECDBF9D8362
:1034B0008C837F836E838E819F819C0130688C8199
:1034C0009D81FC01318320838C819D81FC0186815B
:1034D00097819B838A838C819D810E946B0C8A815A
:1034E0009B8102960E946B0C8A819B81FC019689CC
:1034F00080918507891730F48A819B81FC01868938
:10350000809385078A819B81AC014E5F5F4F8A81E2
:103510009B81FC018689282F30E0C901880F991F03
:10352000880F991F880F991F820F931F8B5C984FEC
:10353000BA010E94A40B8A819B81FC01268980919B
:10354000330790913407FC018689821730F481E0BB
:10355000898381E08093880701C019828981279639
:103560000FB6F894DEBF0FBECDBFDF91CF910895A7
:10357000CF93DF9300D0CDB7DEB79A8389832091B4
:10358000890789819A81FC012083209183073091EA
:10359000840789819A81FC013283218300000F9086
:1035A0000F90DF91CF910895CF93DF93CDB7DEB722
:1035B00027970FB6F894DEBF0FBECDBF9D838C83D7
:1035C0007F836E830FB6F8940F928091830790915A
:1035D00084079B838A838C819D81FC0190818091EB
:1035E0008907981769F08C819D81FC0121813281C6
:1035F0008A819B818217930718F081E0898330C00C
:103600008C819D81FC01818192812A813B81281BD3
:10361000390B8E819F81FC018081918128173907A8
:10362000E8F48E819F81FC01208131818C819D8114
:10363000FC01418152818A819B81BA01681B790B0F
:10364000CB01280F391F8E819F81FC01318320839C
:103650008C819D810E94B81A198202C081E0898301
:103660000F900FBE898127960FB6F894DEBF0FBE6C
:10367000CDBFDF91CF910895CF93DF93CDB7DEB764
:1036800081E0809388070000DF91CF910895CF9368
:10369000DF9300D0CDB7DEB79A8389830E941B1CCD
:1036A000809135078230D0F30E94E503F7CF0F9366
:1036B0001F93CF93DF93CDB7DEB72A970FB6F89459
:1036C000DEBF0FBECDBF9B838A837D836C834E8319
:1036D00038872F831A870987198221C08981882F0B
:1036E00090E02981222F30E04C815D81240F351F2D
:1036F000F90140812A813B81820F931F4996FC0189
:1037000040838981882F90E02C813D81820F931F17
:10371000FC018081882339F089818F5F89838981C9
:103720008830E0F201C000008A819B81FC0110A278
:103730008E81843010F083E08E838A819B812E817C
:10374000FC01268B8A819B8102960E94920B8A81C2
:103750009B810C960E94920B8A819B812A813B81DE
:10376000FC01318720878E81882F90E024E030E0B3
:10377000281B390B8A819B81FC01358724878A812C
:103780009B812A813B81FC01338B228B8A819B8127
:10379000FC0111A212A213A214A28A819B81FC0136
:1037A00015A200002A960FB6F894DEBF0FBECDBF5B
:1037B000DF91CF911F910F910895CF93DF931F92C7
:1037C000CDB7DEB7198213C08981282F30E0C90137
:1037D000880F991F880F991F880F991F820F931FB9
:1037E0008B5C984F0E945C0B89818F5F89838981F4
:1037F000843050F389E597E00E945C0B82E697E005
:103800000E945C0B8FE697E00E945C0B88E797E0D4
:103810000E945C0B89E597E090936C0780936B079F
:1038200082E697E090936E0780936D0700000F90FB
:10383000DF91CF910895CF93DF9300D01F92CDB742
:10384000DEB72FC00E9436179091780781E0992348
:1038500009F080E089830E9443178981882309F554
:103860000FB6F8940F9280917D0790917E07FC012E
:10387000868197819B838A838A819B8102960E949D
:103880006B0C809182078150809382078091810721
:103890008150809381070F900FBE8A819B810E9487
:1038A000EA1C80918107882369F600000F900F9031
:1038B0000F90DF91CF910895CF93DF9300D0CDB7D4
:1038C000DEB79A83898380913307909134072981E9
:1038D0003A81FC013383228380918307909184078E
:1038E00029813A812817390778F48091330790911C
:1038F00034079C012E5F3F4F80916D0790916E07BA
:10390000B9010E94F30B1DC08091330790913407D9
:103910009C012E5F3F4F80916B0790916C07B9011E
:103920000E94F30B809102019091030129813A8159
:103930002817390730F489819A8190930301809385
:10394000020100000F900F90DF91CF910895CF9367
:10395000DF93CDB7DEB728970FB6F894DEBF0FBE62
:10396000CDBF9E838D8378876F838F819885892BC8
:1039700029F48D819E810E94530002C08F81988519
:103980009C838B838B819C81892BB9F086E290E0AC
:103990000E9453009A83898389819A81892B41F0FF
:1039A00089819A812B813C81FC01308F278B07C054
:1039B0008B819C810E94420102C01A8219828981F6
:1039C0009A8128960FB6F894DEBF0FBECDBFDF9167
:1039D000CF910895CF93DF9300D0CDB7DEB79A8310
:1039E000898389819A81FC018789908D0E94420197
:1039F00089819A810E94420100000F900F90DF910F
:103A0000CF910895CF93DF9300D0CDB7DEB78091EB
:103A10006B0790916C07FC018081882339F48FEF4C
:103A20009FEF909303018093020115C080916B0773
:103A300090916C07FC0185819681FC0186819781BC
:103A40009A83898389819A81FC01828193819093F1
:103A500003018093020100000F900F90DF91CF913E
:103A60000895CF93DF9300D0CDB7DEB780913307B1
:103A700090913407FC01848595859A838983809190
:103A80003307909134072091330730913407F901BF
:103A90002689222F30E044E050E0BA01621B730B0C
:103AA0009B01FC013587248789819A810F900F90B3
:103AB000DF91CF910895CF93DF93CDB7DEB72997EC
:103AC0000FB6F894DEBF0FBECDBF8F8379876887AE
:103AD0000FB6F8940F928091330790913407FC0150
:103AE00081A192A1A3A1B4A1892B8A2B8B2B11F5C3
:103AF000809133079091340721E0FC0125A388854C
:103B00009985892BB9F080913307909134070296FB
:103B10000E946B0C209183073091840788859985DA
:103B2000820F931F9A83898389819A810E945C1CEA
:103B30000E94E5030F900FBE0FB6F8940F9280918C
:103B4000330790913407FC0181A192A1A3A1B4A1F4
:103B50008B839C83AD83BE838B819C81AD81BE8131
:103B6000892B8A2B8B2BF1F08F81882351F0809148
:103B7000330790913407FC0111A212A213A214A2E0
:103B800011C02091330730913407F90181A192A12E
:103B9000A3A1B4A10197A109B109F90181A392A33D
:103BA000A3A3B4A38091330790913407FC0115A21D
:103BB0000F900FBE8B819C81AD81BE81BC01CD0178
:103BC00029960FB6F894DEBF0FBECDBFDF91CF911F
:103BD0000895EF92FF920F931F93CF93DF93CDB78A
:103BE000DEB72F970FB6F894DEBF0FBECDBF6C8344
:103BF0007D838E839F83288739874A875B871D87CC
:103C00000C87FF86EE860FB6F8940F9280913307EB
:103C100090913407FC0185A18230E1F16091330776
:103C200070913407FB0121A132A143A154A18C81E1
:103C30009D81AE81BF8180959095A095B09582239E
:103C40009323A423B523FB0181A392A3A3A3B4A32D
:103C5000809133079091340721E0FC0125A38E85E4
:103C60009F85892BB9F08091330790913407029694
:103C70000E946B0C20918307309184078E859F856D
:103C8000820F931F9B838A838A819B810E945C1C85
:103C90000E94E5030F900FBE0FB6F8940F928C852B
:103CA0009D85892B81F08091330790913407FC0129
:103CB00081A192A1A3A1B4A12C853D85F9018083A6
:103CC0009183A283B3838091330790913407FC01E1
:103CD00085A1813011F419821CC060913307709165
:103CE0003407FB0121A132A143A154A18885998504
:103CF000AA85BB8580959095A095B0958223932346
:103D0000A423B523FB0181A392A3A3A3B4A381E0C1
:103D100089838091330790913407FC0115A20F909D
:103D20000FBE89812F960FB6F894DEBF0FBECDBFB0
:103D3000DF91CF911F910F91FF90EF9008950F9316
:103D40001F93CF93DF93CDB7DEB72D970FB6F894BF
:103D5000DEBF0FBECDBF9E838D834F83588769879B
:103D60007A872B871D870C8781E089838D819E81CF
:103D70009B838A830FB6F8940F928C859D85892B3F
:103D800071F08A819B81FC0181A192A1A3A1B4A1C0
:103D90002C853D85F90180839183A283B3838A8139
:103DA0009B81FC0185A18C838A819B8122E0FC019F
:103DB00025A38B85882F90E08230910531F18330E7
:103DC000910534F4009709F44FC0019739F04DC0C4
:103DD0008330910561F10497B1F147C08A819B81DD
:103DE000FC0121A132A143A154A18F819885A9850D
:103DF000BA85822B932BA42BB52B2A813B81F90109
:103E000081A392A3A3A3B4A330C08A819B81FC01A8
:103E100081A192A1A3A1B4A10196A11DB11D2A81E6
:103E20003B81F90181A392A3A3A3B4A31EC02A815D
:103E30003B818F819885A985BA85F90181A392A3D9
:103E4000A3A3B4A312C08C81823061F02A813B818C
:103E50008F819885A985BA85F90181A392A3A3A32F
:103E6000B4A303C0198201C000008C818130D1F558
:103E70008A819B8102960E946B0C8A819B81FC0146
:103E8000968980918507891730F48A819B81FC018E
:103E90008689809385078A819B81AC014E5F5F4F45
:103EA0008A819B81FC018689282F30E0C901880F17
:103EB000991F880F991F880F991F820F931F8B5C82
:103EC000984FBA010E94A40B8A819B81FC0126892C
:103ED0008091330790913407FC018689821710F492
:103EE0000E94E5030F900FBE89812D960FB6F894BE
:103EF000DEBF0FBECDBFDF91CF911F910F9108950F
:103F00000F931F93CF93DF93CDB7DEB72E970FB6E6
:103F1000F894DEBF0FBECDBF9F838E83488759873D
:103F20006A877B872C871E870D8781E089838E8136
:103F30009F819B838A831C828A819B81FC0185A14E
:103F40008D838A819B8122E0FC0125A38C85882FAB
:103F500090E08230910531F18330910534F400977F
:103F600009F44FC0019739F04DC08330910561F1DC
:103F70000497B1F147C08A819B81FC0121A132A144
:103F800043A154A188859985AA85BB85822B932B53
:103F9000A42BB52B2A813B81F90181A392A3A3A372
:103FA000B4A330C08A819B81FC0181A192A1A3A10D
:103FB000B4A10196A11DB11D2A813B81F90181A304
:103FC00092A3A3A3B4A31EC02A813B8188859985AF
:103FD000AA85BB85F90181A392A3A3A3B4A312C0B0
:103FE0008D81823061F02A813B8188859985AA85FF
:103FF000BB85F90181A392A3A3A3B4A303C0198233
:1040000001C000008D81813009F04EC080918B0786
:10401000882369F58A819B8102960E946B0C8A81B4
:104020009B81FC01968980918507891730F48A81EC
:104030009B81FC018689809385078A819B81AC01E5
:104040004E5F5F4F8A819B81FC018689282F30E07B
:10405000C901880F991F880F991F880F991F820F18
:10406000931F8B5C984FBA010E94A40B08C08A81F1
:104070009B810C96BC018FE697E00E94A40B8A817D
:104080009B81FC0126898091330790913407FC01C4
:104090008689821748F48D859E85892B29F08D8528
:1040A0009E8521E0FC01208389812E960FB6F8942D
:1040B000DEBF0FBECDBFDF91CF911F910F9108954D
:1040C000CF93DF93CDB7DEB728970FB6F894DEBF56
:1040D0000FBECDBF9E838D8378876F838D819E8138
:1040E0009A8389831B8289819A81FC0185A18C83B3
:1040F00089819A8122E0FC0125A389819A81FC01B2
:1041000081A192A1A3A1B4A10196A11DB11D2981F4
:104110003A81F90181A392A3A3A3B4A38C81813036
:1041200009F04EC080918B07882369F589819A81B7
:1041300002960E946B0C89819A81FC01968980917C
:104140008507891730F489819A81FC0186898093DB
:10415000850789819A81AC014E5F5F4F89819A8181
:10416000FC018689282F30E0C901880F991F880F2C
:10417000991F880F991F820F931F8B5C984FBA016C
:104180000E94A40B08C089819A810C96BC018FE61D
:1041900097E00E94A40B89819A81FC012689809175
:1041A000330790913407FC018689821748F48F8188
:1041B0009885892B29F08F81988521E0FC01208347
:1041C000000028960FB6F894DEBF0FBECDBFDF917A
:1041D000CF910895FB01DC0102C001900D92415086
:0A41E0005040D8F70895F894FFCF7F
:1041EA00DB05FFFF477265656E4C45440049444C48
:0441FA004500040078
:00000001FF
